{
  "_format": "hh-sol-artifact-1",
  "contractName": "Drive",
  "sourceName": "contracts/Drive.sol",
  "abi": [
    {
      "anonymous": false,
      "inputs": [
        {
          "indexed": false,
          "internalType": "address",
          "name": "sender",
          "type": "address"
        },
        {
          "indexed": false,
          "internalType": "string",
          "name": "url",
          "type": "string"
        }
      ],
      "name": "DebugUpload",
      "type": "event"
    },
    {
      "anonymous": false,
      "inputs": [
        {
          "indexed": false,
          "internalType": "address",
          "name": "owner",
          "type": "address"
        },
        {
          "indexed": false,
          "internalType": "string",
          "name": "url",
          "type": "string"
        },
        {
          "indexed": false,
          "internalType": "address",
          "name": "user",
          "type": "address"
        }
      ],
      "name": "accessGiven",
      "type": "event"
    },
    {
      "anonymous": false,
      "inputs": [
        {
          "indexed": false,
          "internalType": "address",
          "name": "owner",
          "type": "address"
        },
        {
          "indexed": false,
          "internalType": "string",
          "name": "url",
          "type": "string"
        },
        {
          "indexed": false,
          "internalType": "address",
          "name": "user",
          "type": "address"
        }
      ],
      "name": "accessRevoked",
      "type": "event"
    },
    {
      "inputs": [
        {
          "internalType": "address",
          "name": "",
          "type": "address"
        },
        {
          "internalType": "string",
          "name": "",
          "type": "string"
        },
        {
          "internalType": "uint256",
          "name": "",
          "type": "uint256"
        }
      ],
      "name": "AccessList",
      "outputs": [
        {
          "internalType": "bool",
          "name": "status",
          "type": "bool"
        },
        {
          "internalType": "address",
          "name": "userAddress",
          "type": "address"
        }
      ],
      "stateMutability": "view",
      "type": "function"
    },
    {
      "inputs": [
        {
          "internalType": "string",
          "name": "url",
          "type": "string"
        },
        {
          "internalType": "address",
          "name": "user",
          "type": "address"
        }
      ],
      "name": "DenyAccess",
      "outputs": [],
      "stateMutability": "nonpayable",
      "type": "function"
    },
    {
      "inputs": [],
      "name": "displayData",
      "outputs": [
        {
          "internalType": "string[]",
          "name": "",
          "type": "string[]"
        }
      ],
      "stateMutability": "view",
      "type": "function"
    },
    {
      "inputs": [
        {
          "internalType": "address",
          "name": "user",
          "type": "address"
        }
      ],
      "name": "displayUserFiles",
      "outputs": [
        {
          "components": [
            {
              "internalType": "string",
              "name": "url",
              "type": "string"
            },
            {
              "internalType": "string",
              "name": "name",
              "type": "string"
            },
            {
              "internalType": "string",
              "name": "date",
              "type": "string"
            },
            {
              "internalType": "uint256",
              "name": "size",
              "type": "uint256"
            }
          ],
          "internalType": "struct Drive.UploadData[]",
          "name": "",
          "type": "tuple[]"
        }
      ],
      "stateMutability": "view",
      "type": "function"
    },
    {
      "inputs": [
        {
          "internalType": "string",
          "name": "url",
          "type": "string"
        }
      ],
      "name": "getAccessList",
      "outputs": [
        {
          "components": [
            {
              "internalType": "bool",
              "name": "status",
              "type": "bool"
            },
            {
              "internalType": "address",
              "name": "userAddress",
              "type": "address"
            }
          ],
          "internalType": "struct Drive.List[]",
          "name": "",
          "type": "tuple[]"
        }
      ],
      "stateMutability": "view",
      "type": "function"
    },
    {
      "inputs": [
        {
          "internalType": "address",
          "name": "",
          "type": "address"
        },
        {
          "internalType": "uint256",
          "name": "",
          "type": "uint256"
        }
      ],
      "name": "ownership",
      "outputs": [
        {
          "internalType": "string",
          "name": "url",
          "type": "string"
        },
        {
          "internalType": "bool",
          "name": "access",
          "type": "bool"
        }
      ],
      "stateMutability": "view",
      "type": "function"
    },
    {
      "inputs": [
        {
          "internalType": "string",
          "name": "url",
          "type": "string"
        },
        {
          "internalType": "address",
          "name": "user",
          "type": "address"
        }
      ],
      "name": "shareAccess",
      "outputs": [],
      "stateMutability": "nonpayable",
      "type": "function"
    },
    {
      "inputs": [
        {
          "internalType": "string",
          "name": "url",
          "type": "string"
        },
        {
          "internalType": "string",
          "name": "name",
          "type": "string"
        },
        {
          "internalType": "string",
          "name": "date",
          "type": "string"
        },
        {
          "internalType": "uint256",
          "name": "size",
          "type": "uint256"
        }
      ],
      "name": "uploadFile",
      "outputs": [],
      "stateMutability": "nonpayable",
      "type": "function"
    },
    {
      "inputs": [
        {
          "internalType": "address",
          "name": "",
          "type": "address"
        },
        {
          "internalType": "uint256",
          "name": "",
          "type": "uint256"
        }
      ],
      "name": "uploads",
      "outputs": [
        {
          "internalType": "string",
          "name": "url",
          "type": "string"
        },
        {
          "internalType": "string",
          "name": "name",
          "type": "string"
        },
        {
          "internalType": "string",
          "name": "date",
          "type": "string"
        },
        {
          "internalType": "uint256",
          "name": "size",
          "type": "uint256"
        }
      ],
      "stateMutability": "view",
      "type": "function"
    }
  ],
  "bytecode": "0x6080604052348015600f57600080fd5b5061262e8061001f6000396000f3fe608060405234801561001057600080fd5b50600436106100935760003560e01c8063c1f5849011610066578063c1f5849014610136578063d1d90a8814610152578063d655c0d31461016e578063ee9bfc8c1461019e578063f445b43b146101cf57610093565b806322c67f4d146100985780636c96f1f9146100c95780636ccc20f0146100e7578063b7a3449214610103575b600080fd5b6100b260048036038101906100ad9190611936565b6101ff565b6040516100c09291906119cf565b60405180910390f35b6100d161028c565b6040516100de9190611b39565b60405180910390f35b61010160048036038101906100fc9190611b5b565b6105be565b005b61011d60048036038101906101189190611c16565b610717565b60405161012d9493929190611caf565b60405180910390f35b610150600480360381019061014b9190611d09565b6108fc565b005b61016c60048036038101906101679190611d09565b610c72565b005b61018860048036038101906101839190611d65565b6112ee565b6040516101959190611eaa565b60405180910390f35b6101b860048036038101906101b39190611c16565b611415565b6040516101c6929190611ecc565b60405180910390f35b6101e960048036038101906101e49190611efc565b6114eb565b6040516101f6919061206b565b60405180910390f35b600160205282600052604060002082805160208101820180518482526020830160208501208183528095505050505050818154811061023d57600080fd5b9060005260206000200160009250925050508060000160009054906101000a900460ff16908060000160019054906101000a900473ffffffffffffffffffffffffffffffffffffffff16905082565b60606000805b600260003373ffffffffffffffffffffffffffffffffffffffff1673ffffffffffffffffffffffffffffffffffffffff168152602001908152602001600020805490508110156103735760011515600260003373ffffffffffffffffffffffffffffffffffffffff1673ffffffffffffffffffffffffffffffffffffffff16815260200190815260200160002082815481106103315761033061208d565b5b906000526020600020906002020160010160009054906101000a900460ff16151503610366578180610362906120eb565b9250505b8080600101915050610292565b5060008167ffffffffffffffff8111156103905761038f6117d5565b5b6040519080825280602002602001820160405280156103c357816020015b60608152602001906001900390816103ae5790505b5090506000805b600260003373ffffffffffffffffffffffffffffffffffffffff1673ffffffffffffffffffffffffffffffffffffffff168152602001908152602001600020805490508110156105b45760011515600260003373ffffffffffffffffffffffffffffffffffffffff1673ffffffffffffffffffffffffffffffffffffffff16815260200190815260200160002082815481106104695761046861208d565b5b906000526020600020906002020160010160009054906101000a900460ff161515036105a757600260003373ffffffffffffffffffffffffffffffffffffffff1673ffffffffffffffffffffffffffffffffffffffff16815260200190815260200160002081815481106104e0576104df61208d565b5b906000526020600020906002020160000180546104fc90612162565b80601f016020809104026020016040519081016040528092919081815260200182805461052890612162565b80156105755780601f1061054a57610100808354040283529160200191610575565b820191906000526020600020905b81548152906001019060200180831161055857829003601f168201915b505050505083838151811061058d5761058c61208d565b5b602002602001018190525081806105a3906120eb565b9250505b80806001019150506103ca565b5081935050505090565b6000845111610602576040517f08c379a00000000000000000000000000000000000000000000000000000000081526004016105f9906121df565b60405180910390fd5b6000803373ffffffffffffffffffffffffffffffffffffffff1673ffffffffffffffffffffffffffffffffffffffff1681526020019081526020016000206040518060800160405280868152602001858152602001848152602001838152509080600181540180825580915050600190039060005260206000209060040201600090919091909150600082015181600001908161069f91906123ab565b5060208201518160010190816106b591906123ab565b5060408201518160020190816106cb91906123ab565b506060820151816003015550507fcf476c343a1abd8f9d724c558ccf9aee9dff54f8f9c3aaada6fec50fe242680a338560405161070992919061247d565b60405180910390a150505050565b6000602052816000526040600020818154811061073357600080fd5b90600052602060002090600402016000915091505080600001805461075790612162565b80601f016020809104026020016040519081016040528092919081815260200182805461078390612162565b80156107d05780601f106107a5576101008083540402835291602001916107d0565b820191906000526020600020905b8154815290600101906020018083116107b357829003601f168201915b5050505050908060010180546107e590612162565b80601f016020809104026020016040519081016040528092919081815260200182805461081190612162565b801561085e5780601f106108335761010080835404028352916020019161085e565b820191906000526020600020905b81548152906001019060200180831161084157829003601f168201915b50505050509080600201805461087390612162565b80601f016020809104026020016040519081016040528092919081815260200182805461089f90612162565b80156108ec5780601f106108c1576101008083540402835291602001916108ec565b820191906000526020600020905b8154815290600101906020018083116108cf57829003601f168201915b5050505050908060030154905084565b60005b600160003373ffffffffffffffffffffffffffffffffffffffff1673ffffffffffffffffffffffffffffffffffffffff1681526020019081526020016000208360405161094c91906124e9565b908152602001604051809103902080549050811015610c6d578173ffffffffffffffffffffffffffffffffffffffff16600160003373ffffffffffffffffffffffffffffffffffffffff1673ffffffffffffffffffffffffffffffffffffffff168152602001908152602001600020846040516109c991906124e9565b908152602001604051809103902082815481106109e9576109e861208d565b5b9060005260206000200160000160019054906101000a900473ffffffffffffffffffffffffffffffffffffffff1673ffffffffffffffffffffffffffffffffffffffff1603610c60576000600160003373ffffffffffffffffffffffffffffffffffffffff1673ffffffffffffffffffffffffffffffffffffffff16815260200190815260200160002084604051610a8191906124e9565b90815260200160405180910390208281548110610aa157610aa061208d565b5b9060005260206000200160000160006101000a81548160ff02191690831515021790555060005b600260008473ffffffffffffffffffffffffffffffffffffffff1673ffffffffffffffffffffffffffffffffffffffff16815260200190815260200160002080549050811015610c1f578380519060200120600260008573ffffffffffffffffffffffffffffffffffffffff1673ffffffffffffffffffffffffffffffffffffffff1681526020019081526020016000208281548110610b6b57610b6a61208d565b5b9060005260206000209060020201600001604051610b8991906125a3565b604051809103902003610c12576000600260008573ffffffffffffffffffffffffffffffffffffffff1673ffffffffffffffffffffffffffffffffffffffff1681526020019081526020016000208281548110610be957610be861208d565b5b906000526020600020906002020160010160006101000a81548160ff0219169083151502179055505b8080600101915050610ac8565b507f880ebf54d0986d94b3041cf685199a41eba8fb89c05b1c366187818fa8051e3c338484604051610c53939291906125ba565b60405180910390a1610c6d565b80806001019150506108ff565b505050565b600080600090505b600160003373ffffffffffffffffffffffffffffffffffffffff1673ffffffffffffffffffffffffffffffffffffffff16815260200190815260200160002084604051610cc791906124e9565b908152602001604051809103902080549050811015610eed578273ffffffffffffffffffffffffffffffffffffffff16600160003373ffffffffffffffffffffffffffffffffffffffff1673ffffffffffffffffffffffffffffffffffffffff16815260200190815260200160002085604051610d4491906124e9565b90815260200160405180910390208281548110610d6457610d6361208d565b5b9060005260206000200160000160019054906101000a900473ffffffffffffffffffffffffffffffffffffffff1673ffffffffffffffffffffffffffffffffffffffff16148015610e40575060001515600160003373ffffffffffffffffffffffffffffffffffffffff1673ffffffffffffffffffffffffffffffffffffffff16815260200190815260200160002085604051610e0191906124e9565b90815260200160405180910390208281548110610e2157610e2061208d565b5b9060005260206000200160000160009054906101000a900460ff161515145b15610ee05760018060003373ffffffffffffffffffffffffffffffffffffffff1673ffffffffffffffffffffffffffffffffffffffff16815260200190815260200160002085604051610e9391906124e9565b90815260200160405180910390208281548110610eb357610eb261208d565b5b9060005260206000200160000160006101000a81548160ff02191690831515021790555060019150610eed565b8080600101915050610c7a565b508061100b57600160003373ffffffffffffffffffffffffffffffffffffffff1673ffffffffffffffffffffffffffffffffffffffff16815260200190815260200160002083604051610f4091906124e9565b908152602001604051809103902060405180604001604052806001151581526020018473ffffffffffffffffffffffffffffffffffffffff168152509080600181540180825580915050600190039060005260206000200160009091909190915060008201518160000160006101000a81548160ff02191690831515021790555060208201518160000160016101000a81548173ffffffffffffffffffffffffffffffffffffffff021916908373ffffffffffffffffffffffffffffffffffffffff16021790555050505b6000805b600260008573ffffffffffffffffffffffffffffffffffffffff1673ffffffffffffffffffffffffffffffffffffffff168152602001908152602001600020805490508110156111ee578480519060200120600260008673ffffffffffffffffffffffffffffffffffffffff1673ffffffffffffffffffffffffffffffffffffffff16815260200190815260200160002082815481106110b2576110b161208d565b5b90600052602060002090600202016000016040516110d091906125a3565b6040518091039020036111e1576001915060001515600260008673ffffffffffffffffffffffffffffffffffffffff1673ffffffffffffffffffffffffffffffffffffffff16815260200190815260200160002082815481106111365761113561208d565b5b906000526020600020906002020160010160009054906101000a900460ff161515036111dc576001600260008673ffffffffffffffffffffffffffffffffffffffff1673ffffffffffffffffffffffffffffffffffffffff16815260200190815260200160002082815481106111af576111ae61208d565b5b906000526020600020906002020160010160006101000a81548160ff0219169083151502179055506111ee565b6111ee565b808060010191505061100f565b50806112ad57600260008473ffffffffffffffffffffffffffffffffffffffff1673ffffffffffffffffffffffffffffffffffffffff1681526020019081526020016000206040518060400160405280868152602001600115158152509080600181540180825580915050600190039060005260206000209060020201600090919091909150600082015181600001908161128991906123ab565b5060208201518160010160006101000a81548160ff02191690831515021790555050505b7fa2a2eca381ae14d140cf178715cc51b9f9decd1b3e000fa65421f77c69f58b4e3385856040516112e0939291906125ba565b60405180910390a150505050565b6060600160003373ffffffffffffffffffffffffffffffffffffffff1673ffffffffffffffffffffffffffffffffffffffff1681526020019081526020016000208260405161133d91906124e9565b9081526020016040518091039020805480602002602001604051908101604052809291908181526020016000905b8282101561140a578382906000526020600020016040518060400160405290816000820160009054906101000a900460ff161515151581526020016000820160019054906101000a900473ffffffffffffffffffffffffffffffffffffffff1673ffffffffffffffffffffffffffffffffffffffff1673ffffffffffffffffffffffffffffffffffffffff16815250508152602001906001019061136b565b505050509050919050565b6002602052816000526040600020818154811061143157600080fd5b90600052602060002090600202016000915091505080600001805461145590612162565b80601f016020809104026020016040519081016040528092919081815260200182805461148190612162565b80156114ce5780601f106114a3576101008083540402835291602001916114ce565b820191906000526020600020905b8154815290600101906020018083116114b157829003601f168201915b5050505050908060010160009054906101000a900460ff16905082565b60606000808373ffffffffffffffffffffffffffffffffffffffff1673ffffffffffffffffffffffffffffffffffffffff168152602001908152602001600020805480602002602001604051908101604052809291908181526020016000905b8282101561173d578382906000526020600020906004020160405180608001604052908160008201805461157e90612162565b80601f01602080910402602001604051908101604052809291908181526020018280546115aa90612162565b80156115f75780601f106115cc576101008083540402835291602001916115f7565b820191906000526020600020905b8154815290600101906020018083116115da57829003601f168201915b5050505050815260200160018201805461161090612162565b80601f016020809104026020016040519081016040528092919081815260200182805461163c90612162565b80156116895780601f1061165e57610100808354040283529160200191611689565b820191906000526020600020905b81548152906001019060200180831161166c57829003601f168201915b505050505081526020016002820180546116a290612162565b80601f01602080910402602001604051908101604052809291908181526020018280546116ce90612162565b801561171b5780601f106116f05761010080835404028352916020019161171b565b820191906000526020600020905b8154815290600101906020018083116116fe57829003601f168201915b505050505081526020016003820154815250508152602001906001019061154b565b505050509050919050565b6000604051905090565b600080fd5b600080fd5b600073ffffffffffffffffffffffffffffffffffffffff82169050919050565b60006117878261175c565b9050919050565b6117978161177c565b81146117a257600080fd5b50565b6000813590506117b48161178e565b92915050565b600080fd5b600080fd5b6000601f19601f8301169050919050565b7f4e487b7100000000000000000000000000000000000000000000000000000000600052604160045260246000fd5b61180d826117c4565b810181811067ffffffffffffffff8211171561182c5761182b6117d5565b5b80604052505050565b600061183f611748565b905061184b8282611804565b919050565b600067ffffffffffffffff82111561186b5761186a6117d5565b5b611874826117c4565b9050602081019050919050565b82818337600083830152505050565b60006118a361189e84611850565b611835565b9050828152602081018484840111156118bf576118be6117bf565b5b6118ca848285611881565b509392505050565b600082601f8301126118e7576118e66117ba565b5b81356118f7848260208601611890565b91505092915050565b6000819050919050565b61191381611900565b811461191e57600080fd5b50565b6000813590506119308161190a565b92915050565b60008060006060848603121561194f5761194e611752565b5b600061195d868287016117a5565b935050602084013567ffffffffffffffff81111561197e5761197d611757565b5b61198a868287016118d2565b925050604061199b86828701611921565b9150509250925092565b60008115159050919050565b6119ba816119a5565b82525050565b6119c98161177c565b82525050565b60006040820190506119e460008301856119b1565b6119f160208301846119c0565b9392505050565b600081519050919050565b600082825260208201905092915050565b6000819050602082019050919050565b600081519050919050565b600082825260208201905092915050565b60005b83811015611a5e578082015181840152602081019050611a43565b60008484015250505050565b6000611a7582611a24565b611a7f8185611a2f565b9350611a8f818560208601611a40565b611a98816117c4565b840191505092915050565b6000611aaf8383611a6a565b905092915050565b6000602082019050919050565b6000611acf826119f8565b611ad98185611a03565b935083602082028501611aeb85611a14565b8060005b85811015611b275784840389528151611b088582611aa3565b9450611b1383611ab7565b925060208a01995050600181019050611aef565b50829750879550505050505092915050565b60006020820190508181036000830152611b538184611ac4565b905092915050565b60008060008060808587031215611b7557611b74611752565b5b600085013567ffffffffffffffff811115611b9357611b92611757565b5b611b9f878288016118d2565b945050602085013567ffffffffffffffff811115611bc057611bbf611757565b5b611bcc878288016118d2565b935050604085013567ffffffffffffffff811115611bed57611bec611757565b5b611bf9878288016118d2565b9250506060611c0a87828801611921565b91505092959194509250565b60008060408385031215611c2d57611c2c611752565b5b6000611c3b858286016117a5565b9250506020611c4c85828601611921565b9150509250929050565b600082825260208201905092915050565b6000611c7282611a24565b611c7c8185611c56565b9350611c8c818560208601611a40565b611c95816117c4565b840191505092915050565b611ca981611900565b82525050565b60006080820190508181036000830152611cc98187611c67565b90508181036020830152611cdd8186611c67565b90508181036040830152611cf18185611c67565b9050611d006060830184611ca0565b95945050505050565b60008060408385031215611d2057611d1f611752565b5b600083013567ffffffffffffffff811115611d3e57611d3d611757565b5b611d4a858286016118d2565b9250506020611d5b858286016117a5565b9150509250929050565b600060208284031215611d7b57611d7a611752565b5b600082013567ffffffffffffffff811115611d9957611d98611757565b5b611da5848285016118d2565b91505092915050565b600081519050919050565b600082825260208201905092915050565b6000819050602082019050919050565b611de3816119a5565b82525050565b611df28161177c565b82525050565b604082016000820151611e0e6000850182611dda565b506020820151611e216020850182611de9565b50505050565b6000611e338383611df8565b60408301905092915050565b6000602082019050919050565b6000611e5782611dae565b611e618185611db9565b9350611e6c83611dca565b8060005b83811015611e9d578151611e848882611e27565b9750611e8f83611e3f565b925050600181019050611e70565b5085935050505092915050565b60006020820190508181036000830152611ec48184611e4c565b905092915050565b60006040820190508181036000830152611ee68185611c67565b9050611ef560208301846119b1565b9392505050565b600060208284031215611f1257611f11611752565b5b6000611f20848285016117a5565b91505092915050565b600081519050919050565b600082825260208201905092915050565b6000819050602082019050919050565b611f5e81611900565b82525050565b60006080830160008301518482036000860152611f818282611a6a565b91505060208301518482036020860152611f9b8282611a6a565b91505060408301518482036040860152611fb58282611a6a565b9150506060830151611fca6060860182611f55565b508091505092915050565b6000611fe18383611f64565b905092915050565b6000602082019050919050565b600061200182611f29565b61200b8185611f34565b93508360208202850161201d85611f45565b8060005b85811015612059578484038952815161203a8582611fd5565b945061204583611fe9565b925060208a01995050600181019050612021565b50829750879550505050505092915050565b600060208201905081810360008301526120858184611ff6565b905092915050565b7f4e487b7100000000000000000000000000000000000000000000000000000000600052603260045260246000fd5b7f4e487b7100000000000000000000000000000000000000000000000000000000600052601160045260246000fd5b60006120f682611900565b91507fffffffffffffffffffffffffffffffffffffffffffffffffffffffffffffffff8203612128576121276120bc565b5b600182019050919050565b7f4e487b7100000000000000000000000000000000000000000000000000000000600052602260045260246000fd5b6000600282049050600182168061217a57607f821691505b60208210810361218d5761218c612133565b5b50919050565b7f55524c2063616e6e6f7420626520656d70747900000000000000000000000000600082015250565b60006121c9601383611c56565b91506121d482612193565b602082019050919050565b600060208201905081810360008301526121f8816121bc565b9050919050565b60008190508160005260206000209050919050565b60006020601f8301049050919050565b600082821b905092915050565b6000600883026122617fffffffffffffffffffffffffffffffffffffffffffffffffffffffffffffffff82612224565b61226b8683612224565b95508019841693508086168417925050509392505050565b6000819050919050565b60006122a86122a361229e84611900565b612283565b611900565b9050919050565b6000819050919050565b6122c28361228d565b6122d66122ce826122af565b848454612231565b825550505050565b600090565b6122eb6122de565b6122f68184846122b9565b505050565b5b8181101561231a5761230f6000826122e3565b6001810190506122fc565b5050565b601f82111561235f57612330816121ff565b61233984612214565b81016020851015612348578190505b61235c61235485612214565b8301826122fb565b50505b505050565b600082821c905092915050565b600061238260001984600802612364565b1980831691505092915050565b600061239b8383612371565b9150826002028217905092915050565b6123b482611a24565b67ffffffffffffffff8111156123cd576123cc6117d5565b5b6123d78254612162565b6123e282828561231e565b600060209050601f8311600181146124155760008415612403578287015190505b61240d858261238f565b865550612475565b601f198416612423866121ff565b60005b8281101561244b57848901518255600182019150602085019450602081019050612426565b868310156124685784890151612464601f891682612371565b8355505b6001600288020188555050505b505050505050565b600060408201905061249260008301856119c0565b81810360208301526124a48184611c67565b90509392505050565b600081905092915050565b60006124c382611a24565b6124cd81856124ad565b93506124dd818560208601611a40565b80840191505092915050565b60006124f582846124b8565b915081905092915050565b600081905092915050565b60008190508160005260206000209050919050565b6000815461252d81612162565b6125378186612500565b9450600182166000811461255257600181146125675761259a565b60ff198316865281151582028601935061259a565b6125708561250b565b60005b8381101561259257815481890152600182019150602081019050612573565b838801955050505b50505092915050565b60006125af8284612520565b915081905092915050565b60006060820190506125cf60008301866119c0565b81810360208301526125e18185611c67565b90506125f060408301846119c0565b94935050505056fea2646970667358221220f4c0914ab1bb98a1120193ab343bad61fcd19a4c64effaf2abd2ff3deca6ae1e64736f6c634300081b0033",
  "linkReferences": {},
  "deployedLinkReferences": {}
}