{
  "_format": "hh-sol-artifact-1",
  "contractName": "Drive",
  "sourceName": "contracts/Drive.sol",
  "abi": [
    {
      "anonymous": false,
      "inputs": [
        {
          "indexed": false,
          "internalType": "address",
          "name": "sender",
          "type": "address"
        },
        {
          "indexed": false,
          "internalType": "string",
          "name": "url",
          "type": "string"
        }
      ],
      "name": "DebugUpload",
      "type": "event"
    },
    {
      "anonymous": false,
      "inputs": [
        {
          "indexed": false,
          "internalType": "address",
          "name": "owner",
          "type": "address"
        },
        {
          "indexed": false,
          "internalType": "string",
          "name": "url",
          "type": "string"
        },
        {
          "indexed": false,
          "internalType": "address",
          "name": "user",
          "type": "address"
        }
      ],
      "name": "accessGiven",
      "type": "event"
    },
    {
      "anonymous": false,
      "inputs": [
        {
          "indexed": false,
          "internalType": "address",
          "name": "owner",
          "type": "address"
        },
        {
          "indexed": false,
          "internalType": "string",
          "name": "url",
          "type": "string"
        },
        {
          "indexed": false,
          "internalType": "address",
          "name": "user",
          "type": "address"
        }
      ],
      "name": "accessRevoked",
      "type": "event"
    },
    {
      "inputs": [
        {
          "internalType": "address",
          "name": "",
          "type": "address"
        },
        {
          "internalType": "string",
          "name": "",
          "type": "string"
        },
        {
          "internalType": "uint256",
          "name": "",
          "type": "uint256"
        }
      ],
      "name": "AccessList",
      "outputs": [
        {
          "internalType": "bool",
          "name": "status",
          "type": "bool"
        },
        {
          "internalType": "address",
          "name": "userAddress",
          "type": "address"
        }
      ],
      "stateMutability": "view",
      "type": "function"
    },
    {
      "inputs": [
        {
          "internalType": "string",
          "name": "url",
          "type": "string"
        },
        {
          "internalType": "address",
          "name": "user",
          "type": "address"
        }
      ],
      "name": "DenyAccess",
      "outputs": [],
      "stateMutability": "nonpayable",
      "type": "function"
    },
    {
      "inputs": [],
      "name": "displayData",
      "outputs": [
        {
          "internalType": "string[]",
          "name": "",
          "type": "string[]"
        }
      ],
      "stateMutability": "view",
      "type": "function"
    },
    {
      "inputs": [
        {
          "internalType": "address",
          "name": "user",
          "type": "address"
        }
      ],
      "name": "displayUserFiles",
      "outputs": [
        {
          "internalType": "string[]",
          "name": "",
          "type": "string[]"
        }
      ],
      "stateMutability": "view",
      "type": "function"
    },
    {
      "inputs": [
        {
          "internalType": "string",
          "name": "url",
          "type": "string"
        }
      ],
      "name": "getAccessList",
      "outputs": [
        {
          "components": [
            {
              "internalType": "bool",
              "name": "status",
              "type": "bool"
            },
            {
              "internalType": "address",
              "name": "userAddress",
              "type": "address"
            }
          ],
          "internalType": "struct Drive.List[]",
          "name": "",
          "type": "tuple[]"
        }
      ],
      "stateMutability": "view",
      "type": "function"
    },
    {
      "inputs": [
        {
          "internalType": "address",
          "name": "",
          "type": "address"
        },
        {
          "internalType": "uint256",
          "name": "",
          "type": "uint256"
        }
      ],
      "name": "ownership",
      "outputs": [
        {
          "internalType": "string",
          "name": "",
          "type": "string"
        }
      ],
      "stateMutability": "view",
      "type": "function"
    },
    {
      "inputs": [
        {
          "internalType": "string",
          "name": "url",
          "type": "string"
        },
        {
          "internalType": "address",
          "name": "user",
          "type": "address"
        }
      ],
      "name": "shareAccess",
      "outputs": [],
      "stateMutability": "nonpayable",
      "type": "function"
    },
    {
      "inputs": [
        {
          "internalType": "string",
          "name": "url",
          "type": "string"
        }
      ],
      "name": "uploadFile",
      "outputs": [],
      "stateMutability": "nonpayable",
      "type": "function"
    },
    {
      "inputs": [
        {
          "internalType": "address",
          "name": "",
          "type": "address"
        },
        {
          "internalType": "uint256",
          "name": "",
          "type": "uint256"
        }
      ],
      "name": "uploads",
      "outputs": [
        {
          "internalType": "string",
          "name": "",
          "type": "string"
        }
      ],
      "stateMutability": "view",
      "type": "function"
    }
  ],
  "bytecode": "0x6080604052348015600f57600080fd5b50611c428061001f6000396000f3fe608060405234801561001057600080fd5b50600436106100935760003560e01c8063d1d90a8811610066578063d1d90a8814610133578063d655c0d31461014f578063e37ffc301461017f578063ee9bfc8c1461019b578063f445b43b146101cb57610093565b806322c67f4d146100985780636c96f1f9146100c9578063b7a34492146100e7578063c1f5849014610117575b600080fd5b6100b260048036038101906100ad91906111eb565b6101fb565b6040516100c0929190611284565b60405180910390f35b6100d1610288565b6040516100de91906113ee565b60405180910390f35b61010160048036038101906100fc9190611410565b61039e565b60405161010e919061149a565b60405180910390f35b610131600480360381019061012c91906114bc565b610457565b005b61014d600480360381019061014891906114bc565b610672565b005b61016960048036038101906101649190611518565b610ba6565b604051610176919061165d565b60405180910390f35b61019960048036038101906101949190611518565b610ccd565b005b6101b560048036038101906101b09190611410565b610e2d565b6040516101c2919061149a565b60405180910390f35b6101e560048036038101906101e0919061167f565b610ee6565b6040516101f291906113ee565b60405180910390f35b600160205282600052604060002082805160208101820180518482526020830160208501208183528095505050505050818154811061023957600080fd5b9060005260206000200160009250925050508060000160009054906101000a900460ff16908060000160019054906101000a900473ffffffffffffffffffffffffffffffffffffffff16905082565b6060600260003373ffffffffffffffffffffffffffffffffffffffff1673ffffffffffffffffffffffffffffffffffffffff168152602001908152602001600020805480602002602001604051908101604052809291908181526020016000905b82821015610395578382906000526020600020018054610308906116db565b80601f0160208091040260200160405190810160405280929190818152602001828054610334906116db565b80156103815780601f1061035657610100808354040283529160200191610381565b820191906000526020600020905b81548152906001019060200180831161036457829003601f168201915b5050505050815260200190600101906102e9565b50505050905090565b600060205281600052604060002081815481106103ba57600080fd5b906000526020600020016000915091505080546103d6906116db565b80601f0160208091040260200160405190810160405280929190818152602001828054610402906116db565b801561044f5780601f106104245761010080835404028352916020019161044f565b820191906000526020600020905b81548152906001019060200180831161043257829003601f168201915b505050505081565b60005b600160003373ffffffffffffffffffffffffffffffffffffffff1673ffffffffffffffffffffffffffffffffffffffff168152602001908152602001600020836040516104a79190611748565b90815260200160405180910390208054905081101561066d578173ffffffffffffffffffffffffffffffffffffffff16600160003373ffffffffffffffffffffffffffffffffffffffff1673ffffffffffffffffffffffffffffffffffffffff168152602001908152602001600020846040516105249190611748565b908152602001604051809103902082815481106105445761054361175f565b5b9060005260206000200160000160019054906101000a900473ffffffffffffffffffffffffffffffffffffffff1673ffffffffffffffffffffffffffffffffffffffff1603610660576000600160003373ffffffffffffffffffffffffffffffffffffffff1673ffffffffffffffffffffffffffffffffffffffff168152602001908152602001600020846040516105dc9190611748565b908152602001604051809103902082815481106105fc576105fb61175f565b5b9060005260206000200160000160006101000a81548160ff0219169083151502179055507f880ebf54d0986d94b3041cf685199a41eba8fb89c05b1c366187818fa8051e3c3384846040516106539392919061178e565b60405180910390a161066d565b808060010191505061045a565b505050565b600080600090505b600160003373ffffffffffffffffffffffffffffffffffffffff1673ffffffffffffffffffffffffffffffffffffffff168152602001908152602001600020846040516106c79190611748565b9081526020016040518091039020805490508110156108ed578273ffffffffffffffffffffffffffffffffffffffff16600160003373ffffffffffffffffffffffffffffffffffffffff1673ffffffffffffffffffffffffffffffffffffffff168152602001908152602001600020856040516107449190611748565b908152602001604051809103902082815481106107645761076361175f565b5b9060005260206000200160000160019054906101000a900473ffffffffffffffffffffffffffffffffffffffff1673ffffffffffffffffffffffffffffffffffffffff16148015610840575060001515600160003373ffffffffffffffffffffffffffffffffffffffff1673ffffffffffffffffffffffffffffffffffffffff168152602001908152602001600020856040516108019190611748565b908152602001604051809103902082815481106108215761082061175f565b5b9060005260206000200160000160009054906101000a900460ff161515145b156108e05760018060003373ffffffffffffffffffffffffffffffffffffffff1673ffffffffffffffffffffffffffffffffffffffff168152602001908152602001600020856040516108939190611748565b908152602001604051809103902082815481106108b3576108b261175f565b5b9060005260206000200160000160006101000a81548160ff021916908315150217905550600191506108ed565b808060010191505061067a565b5080610a0b57600160003373ffffffffffffffffffffffffffffffffffffffff1673ffffffffffffffffffffffffffffffffffffffff168152602001908152602001600020836040516109409190611748565b908152602001604051809103902060405180604001604052806001151581526020018473ffffffffffffffffffffffffffffffffffffffff168152509080600181540180825580915050600190039060005260206000200160009091909190915060008201518160000160006101000a81548160ff02191690831515021790555060208201518160000160016101000a81548173ffffffffffffffffffffffffffffffffffffffff021916908373ffffffffffffffffffffffffffffffffffffffff16021790555050505b6000805b600260008573ffffffffffffffffffffffffffffffffffffffff1673ffffffffffffffffffffffffffffffffffffffff16815260200190815260200160002080549050811015610aec578480519060200120600260008673ffffffffffffffffffffffffffffffffffffffff1673ffffffffffffffffffffffffffffffffffffffff1681526020019081526020016000208281548110610ab257610ab161175f565b5b90600052602060002001604051610ac9919061186f565b604051809103902003610adf5760019150610aec565b8080600101915050610a0f565b5080610b6557600260008473ffffffffffffffffffffffffffffffffffffffff1673ffffffffffffffffffffffffffffffffffffffff16815260200190815260200160002084908060018154018082558091505060019003906000526020600020016000909190919091509081610b639190611a32565b505b7fa2a2eca381ae14d140cf178715cc51b9f9decd1b3e000fa65421f77c69f58b4e338585604051610b989392919061178e565b60405180910390a150505050565b6060600160003373ffffffffffffffffffffffffffffffffffffffff1673ffffffffffffffffffffffffffffffffffffffff16815260200190815260200160002082604051610bf59190611748565b9081526020016040518091039020805480602002602001604051908101604052809291908181526020016000905b82821015610cc2578382906000526020600020016040518060400160405290816000820160009054906101000a900460ff161515151581526020016000820160019054906101000a900473ffffffffffffffffffffffffffffffffffffffff1673ffffffffffffffffffffffffffffffffffffffff1673ffffffffffffffffffffffffffffffffffffffff168152505081526020019060010190610c23565b505050509050919050565b6000815111610d11576040517f08c379a0000000000000000000000000000000000000000000000000000000008152600401610d0890611b50565b60405180910390fd5b600073ffffffffffffffffffffffffffffffffffffffff163373ffffffffffffffffffffffffffffffffffffffff1603610d80576040517f08c379a0000000000000000000000000000000000000000000000000000000008152600401610d7790611bbc565b60405180910390fd5b6000803373ffffffffffffffffffffffffffffffffffffffff1673ffffffffffffffffffffffffffffffffffffffff16815260200190815260200160002081908060018154018082558091505060019003906000526020600020016000909190919091509081610df09190611a32565b507fcf476c343a1abd8f9d724c558ccf9aee9dff54f8f9c3aaada6fec50fe242680a3382604051610e22929190611bdc565b60405180910390a150565b60026020528160005260406000208181548110610e4957600080fd5b90600052602060002001600091509150508054610e65906116db565b80601f0160208091040260200160405190810160405280929190818152602001828054610e91906116db565b8015610ede5780601f10610eb357610100808354040283529160200191610ede565b820191906000526020600020905b815481529060010190602001808311610ec157829003601f168201915b505050505081565b60606000808373ffffffffffffffffffffffffffffffffffffffff1673ffffffffffffffffffffffffffffffffffffffff168152602001908152602001600020805480602002602001604051908101604052809291908181526020016000905b82821015610ff2578382906000526020600020018054610f65906116db565b80601f0160208091040260200160405190810160405280929190818152602001828054610f91906116db565b8015610fde5780601f10610fb357610100808354040283529160200191610fde565b820191906000526020600020905b815481529060010190602001808311610fc157829003601f168201915b505050505081526020019060010190610f46565b505050509050919050565b6000604051905090565b600080fd5b600080fd5b600073ffffffffffffffffffffffffffffffffffffffff82169050919050565b600061103c82611011565b9050919050565b61104c81611031565b811461105757600080fd5b50565b60008135905061106981611043565b92915050565b600080fd5b600080fd5b6000601f19601f8301169050919050565b7f4e487b7100000000000000000000000000000000000000000000000000000000600052604160045260246000fd5b6110c282611079565b810181811067ffffffffffffffff821117156110e1576110e061108a565b5b80604052505050565b60006110f4610ffd565b905061110082826110b9565b919050565b600067ffffffffffffffff8211156111205761111f61108a565b5b61112982611079565b9050602081019050919050565b82818337600083830152505050565b600061115861115384611105565b6110ea565b90508281526020810184848401111561117457611173611074565b5b61117f848285611136565b509392505050565b600082601f83011261119c5761119b61106f565b5b81356111ac848260208601611145565b91505092915050565b6000819050919050565b6111c8816111b5565b81146111d357600080fd5b50565b6000813590506111e5816111bf565b92915050565b60008060006060848603121561120457611203611007565b5b60006112128682870161105a565b935050602084013567ffffffffffffffff8111156112335761123261100c565b5b61123f86828701611187565b9250506040611250868287016111d6565b9150509250925092565b60008115159050919050565b61126f8161125a565b82525050565b61127e81611031565b82525050565b60006040820190506112996000830185611266565b6112a66020830184611275565b9392505050565b600081519050919050565b600082825260208201905092915050565b6000819050602082019050919050565b600081519050919050565b600082825260208201905092915050565b60005b838110156113135780820151818401526020810190506112f8565b60008484015250505050565b600061132a826112d9565b61133481856112e4565b93506113448185602086016112f5565b61134d81611079565b840191505092915050565b6000611364838361131f565b905092915050565b6000602082019050919050565b6000611384826112ad565b61138e81856112b8565b9350836020820285016113a0856112c9565b8060005b858110156113dc57848403895281516113bd8582611358565b94506113c88361136c565b925060208a019950506001810190506113a4565b50829750879550505050505092915050565b600060208201905081810360008301526114088184611379565b905092915050565b6000806040838503121561142757611426611007565b5b60006114358582860161105a565b9250506020611446858286016111d6565b9150509250929050565b600082825260208201905092915050565b600061146c826112d9565b6114768185611450565b93506114868185602086016112f5565b61148f81611079565b840191505092915050565b600060208201905081810360008301526114b48184611461565b905092915050565b600080604083850312156114d3576114d2611007565b5b600083013567ffffffffffffffff8111156114f1576114f061100c565b5b6114fd85828601611187565b925050602061150e8582860161105a565b9150509250929050565b60006020828403121561152e5761152d611007565b5b600082013567ffffffffffffffff81111561154c5761154b61100c565b5b61155884828501611187565b91505092915050565b600081519050919050565b600082825260208201905092915050565b6000819050602082019050919050565b6115968161125a565b82525050565b6115a581611031565b82525050565b6040820160008201516115c1600085018261158d565b5060208201516115d4602085018261159c565b50505050565b60006115e683836115ab565b60408301905092915050565b6000602082019050919050565b600061160a82611561565b611614818561156c565b935061161f8361157d565b8060005b8381101561165057815161163788826115da565b9750611642836115f2565b925050600181019050611623565b5085935050505092915050565b6000602082019050818103600083015261167781846115ff565b905092915050565b60006020828403121561169557611694611007565b5b60006116a38482850161105a565b91505092915050565b7f4e487b7100000000000000000000000000000000000000000000000000000000600052602260045260246000fd5b600060028204905060018216806116f357607f821691505b602082108103611706576117056116ac565b5b50919050565b600081905092915050565b6000611722826112d9565b61172c818561170c565b935061173c8185602086016112f5565b80840191505092915050565b60006117548284611717565b915081905092915050565b7f4e487b7100000000000000000000000000000000000000000000000000000000600052603260045260246000fd5b60006060820190506117a36000830186611275565b81810360208301526117b58185611461565b90506117c46040830184611275565b949350505050565b600081905092915050565b60008190508160005260206000209050919050565b600081546117f9816116db565b61180381866117cc565b9450600182166000811461181e576001811461183357611866565b60ff1983168652811515820286019350611866565b61183c856117d7565b60005b8381101561185e5781548189015260018201915060208101905061183f565b838801955050505b50505092915050565b600061187b82846117ec565b915081905092915050565b60008190508160005260206000209050919050565b60006020601f8301049050919050565b600082821b905092915050565b6000600883026118e87fffffffffffffffffffffffffffffffffffffffffffffffffffffffffffffffff826118ab565b6118f286836118ab565b95508019841693508086168417925050509392505050565b6000819050919050565b600061192f61192a611925846111b5565b61190a565b6111b5565b9050919050565b6000819050919050565b61194983611914565b61195d61195582611936565b8484546118b8565b825550505050565b600090565b611972611965565b61197d818484611940565b505050565b5b818110156119a15761199660008261196a565b600181019050611983565b5050565b601f8211156119e6576119b781611886565b6119c08461189b565b810160208510156119cf578190505b6119e36119db8561189b565b830182611982565b50505b505050565b600082821c905092915050565b6000611a09600019846008026119eb565b1980831691505092915050565b6000611a2283836119f8565b9150826002028217905092915050565b611a3b826112d9565b67ffffffffffffffff811115611a5457611a5361108a565b5b611a5e82546116db565b611a698282856119a5565b600060209050601f831160018114611a9c5760008415611a8a578287015190505b611a948582611a16565b865550611afc565b601f198416611aaa86611886565b60005b82811015611ad257848901518255600182019150602085019450602081019050611aad565b86831015611aef5784890151611aeb601f8916826119f8565b8355505b6001600288020188555050505b505050505050565b7f55524c2063616e6e6f7420626520656d70747900000000000000000000000000600082015250565b6000611b3a601383611450565b9150611b4582611b04565b602082019050919050565b60006020820190508181036000830152611b6981611b2d565b9050919050565b7f496e76616c69642073656e646572206164647265737300000000000000000000600082015250565b6000611ba6601683611450565b9150611bb182611b70565b602082019050919050565b60006020820190508181036000830152611bd581611b99565b9050919050565b6000604082019050611bf16000830185611275565b8181036020830152611c038184611461565b9050939250505056fea264697066735822122013ae03621d5a1f7cc082e9baeeb06bbb39a86ce0c3ab6402cd2a6af5db2d6cbe64736f6c634300081b0033",
  "linkReferences": {},
  "deployedLinkReferences": {}
}